{
  "_format": "hh-sol-artifact-1",
  "contractName": "Request",
  "sourceName": "contracts/request.sol",
  "abi": [
    {
      "inputs": [],
      "name": "activeRequestCount",
      "outputs": [
        {
          "internalType": "uint256",
          "name": "",
          "type": "uint256"
        }
      ],
      "stateMutability": "view",
      "type": "function"
    },
    {
      "inputs": [
        {
          "internalType": "uint8",
          "name": "bloodGroup",
          "type": "uint8"
        },
        {
          "internalType": "uint256",
          "name": "units",
          "type": "uint256"
        }
      ],
      "name": "createRequest",
      "outputs": [],
      "stateMutability": "nonpayable",
      "type": "function"
    },
    {
      "inputs": [
        {
          "internalType": "uint256",
          "name": "id",
          "type": "uint256"
        }
      ],
      "name": "fulfilRequest",
      "outputs": [],
      "stateMutability": "nonpayable",
      "type": "function"
    },
    {
      "inputs": [],
      "name": "requestCount",
      "outputs": [
        {
          "internalType": "uint256",
          "name": "",
          "type": "uint256"
        }
      ],
      "stateMutability": "view",
      "type": "function"
    },
    {
      "inputs": [
        {
          "internalType": "uint256",
          "name": "id",
          "type": "uint256"
        }
      ],
      "name": "reserveRequest",
      "outputs": [],
      "stateMutability": "nonpayable",
      "type": "function"
    },
    {
      "inputs": [],
      "name": "showActiveRequests",
      "outputs": [
        {
          "components": [
            {
              "internalType": "uint8",
              "name": "bloodGroup",
              "type": "uint8"
            },
            {
              "internalType": "uint256",
              "name": "id",
              "type": "uint256"
            },
            {
              "internalType": "address",
              "name": "requester",
              "type": "address"
            },
            {
              "internalType": "uint256",
              "name": "units",
              "type": "uint256"
            }
          ],
          "internalType": "struct Request.requestData[]",
          "name": "",
          "type": "tuple[]"
        }
      ],
      "stateMutability": "view",
      "type": "function"
    },
    {
      "inputs": [],
      "name": "showAllRequests",
      "outputs": [
        {
          "components": [
            {
              "internalType": "uint8",
              "name": "bloodGroup",
              "type": "uint8"
            },
            {
              "internalType": "uint256",
              "name": "id",
              "type": "uint256"
            },
            {
              "internalType": "address",
              "name": "requester",
              "type": "address"
            },
            {
              "internalType": "uint256",
              "name": "units",
              "type": "uint256"
            }
          ],
          "internalType": "struct Request.requestData[]",
          "name": "",
          "type": "tuple[]"
        }
      ],
      "stateMutability": "view",
      "type": "function"
    },
    {
      "inputs": [],
      "name": "showCurrentReservations",
      "outputs": [
        {
          "components": [
            {
              "internalType": "uint8",
              "name": "bloodGroup",
              "type": "uint8"
            },
            {
              "internalType": "uint256",
              "name": "id",
              "type": "uint256"
            },
            {
              "internalType": "address",
              "name": "requester",
              "type": "address"
            },
            {
              "internalType": "uint256",
              "name": "units",
              "type": "uint256"
            },
            {
              "internalType": "address",
              "name": "reserver",
              "type": "address"
            }
          ],
          "internalType": "struct Request.reserveData[]",
          "name": "",
          "type": "tuple[]"
        }
      ],
      "stateMutability": "view",
      "type": "function"
    }
  ],
  "bytecode": "0x6080604052600080556000600155348015601857600080fd5b50610f2c806100286000396000f3fe608060405234801561001057600080fd5b50600436106100885760003560e01c8063b281608c1161005b578063b281608c14610103578063b504d79d14610121578063be3b03521461013d578063e452f12f1461015957610088565b80633beb9ac21461008d5780635badbe4c146100a957806386b2a1d8146100c7578063954d046a146100e5575b600080fd5b6100a760048036038101906100a29190610ae0565b610177565b005b6100b1610328565b6040516100be9190610b2f565b60405180910390f35b6100cf61032e565b6040516100dc9190610cad565b60405180910390f35b6100ed610414565b6040516100fa9190610b2f565b60405180910390f35b61010b61041a565b6040516101189190610cad565b60405180910390f35b61013b60048036038101906101369190610ccf565b610500565b005b61015760048036038101906101529190610ccf565b61075b565b005b610161610930565b60405161016e9190610e13565b60405180910390f35b600060405180608001604052808460ff16815260200160005481526020013373ffffffffffffffffffffffffffffffffffffffff168152602001838152509050600381908060018154018082558091505060019003906000526020600020906004020160009091909190915060008201518160000160006101000a81548160ff021916908360ff1602179055506020820151816001015560408201518160020160006101000a81548173ffffffffffffffffffffffffffffffffffffffff021916908373ffffffffffffffffffffffffffffffffffffffff160217905550606082015181600301555050600481908060018154018082558091505060019003906000526020600020906004020160009091909190915060008201518160000160006101000a81548160ff021916908360ff1602179055506020820151816001015560408201518160020160006101000a81548173ffffffffffffffffffffffffffffffffffffffff021916908373ffffffffffffffffffffffffffffffffffffffff160217905550606082015181600301555050600480549050600181905550600380549050600081905550505050565b60005481565b60606003805480602002602001604051908101604052809291908181526020016000905b8282101561040b57838290600052602060002090600402016040518060800160405290816000820160009054906101000a900460ff1660ff1660ff168152602001600182015481526020016002820160009054906101000a900473ffffffffffffffffffffffffffffffffffffffff1673ffffffffffffffffffffffffffffffffffffffff1673ffffffffffffffffffffffffffffffffffffffff16815260200160038201548152505081526020019060010190610352565b50505050905090565b60015481565b60606004805480602002602001604051908101604052809291908181526020016000905b828210156104f757838290600052602060002090600402016040518060800160405290816000820160009054906101000a900460ff1660ff1660ff168152602001600182015481526020016002820160009054906101000a900473ffffffffffffffffffffffffffffffffffffffff1673ffffffffffffffffffffffffffffffffffffffff1673ffffffffffffffffffffffffffffffffffffffff1681526020016003820154815250508152602001906001019061043e565b50505050905090565b60005b60048054905081101561075757816004828154811061052557610524610e35565b5b9060005260206000209060040201600101540361074a5760006040518060a001604052806004848154811061055d5761055c610e35565b5b906000526020600020906004020160000160009054906101000a900460ff1660ff1681526020016004848154811061059857610597610e35565b5b9060005260206000209060040201600101548152602001600484815481106105c3576105c2610e35565b5b906000526020600020906004020160020160009054906101000a900473ffffffffffffffffffffffffffffffffffffffff1673ffffffffffffffffffffffffffffffffffffffff1681526020016004848154811061062457610623610e35565b5b90600052602060002090600402016003015481526020013373ffffffffffffffffffffffffffffffffffffffff168152509050600281908060018154018082558091505060019003906000526020600020906005020160009091909190915060008201518160000160006101000a81548160ff021916908360ff1602179055506020820151816001015560408201518160020160006101000a81548173ffffffffffffffffffffffffffffffffffffffff021916908373ffffffffffffffffffffffffffffffffffffffff1602179055506060820151816003015560808201518160040160006101000a81548173ffffffffffffffffffffffffffffffffffffffff021916908373ffffffffffffffffffffffffffffffffffffffff1602179055505050505b8080600101915050610503565b5050565b60005b60048054905081101561092c5781600482815481106107805761077f610e35565b5b9060005260206000209060040201600101540361091f57600460016004805490506107ab9190610e93565b815481106107bc576107bb610e35565b5b9060005260206000209060040201600482815481106107de576107dd610e35565b5b90600052602060002090600402016000820160009054906101000a900460ff168160000160006101000a81548160ff021916908360ff160217905550600182015481600101556002820160009054906101000a900473ffffffffffffffffffffffffffffffffffffffff168160020160006101000a81548173ffffffffffffffffffffffffffffffffffffffff021916908373ffffffffffffffffffffffffffffffffffffffff1602179055506003820154816003015590505060048054806108aa576108a9610ec7565b5b6001900381819060005260206000209060040201600080820160006101000a81549060ff021916905560018201600090556002820160006101000a81549073ffffffffffffffffffffffffffffffffffffffff021916905560038201600090555050905560048054905060018190555061092c565b808060010191505061075e565b5050565b60606002805480602002602001604051908101604052809291908181526020016000905b82821015610a6357838290600052602060002090600502016040518060a00160405290816000820160009054906101000a900460ff1660ff1660ff168152602001600182015481526020016002820160009054906101000a900473ffffffffffffffffffffffffffffffffffffffff1673ffffffffffffffffffffffffffffffffffffffff1673ffffffffffffffffffffffffffffffffffffffff168152602001600382015481526020016004820160009054906101000a900473ffffffffffffffffffffffffffffffffffffffff1673ffffffffffffffffffffffffffffffffffffffff1673ffffffffffffffffffffffffffffffffffffffff168152505081526020019060010190610954565b50505050905090565b600080fd5b600060ff82169050919050565b610a8781610a71565b8114610a9257600080fd5b50565b600081359050610aa481610a7e565b92915050565b6000819050919050565b610abd81610aaa565b8114610ac857600080fd5b50565b600081359050610ada81610ab4565b92915050565b60008060408385031215610af757610af6610a6c565b5b6000610b0585828601610a95565b9250506020610b1685828601610acb565b9150509250929050565b610b2981610aaa565b82525050565b6000602082019050610b446000830184610b20565b92915050565b600081519050919050565b600082825260208201905092915050565b6000819050602082019050919050565b610b7f81610a71565b82525050565b610b8e81610aaa565b82525050565b600073ffffffffffffffffffffffffffffffffffffffff82169050919050565b6000610bbf82610b94565b9050919050565b610bcf81610bb4565b82525050565b608082016000820151610beb6000850182610b76565b506020820151610bfe6020850182610b85565b506040820151610c116040850182610bc6565b506060820151610c246060850182610b85565b50505050565b6000610c368383610bd5565b60808301905092915050565b6000602082019050919050565b6000610c5a82610b4a565b610c648185610b55565b9350610c6f83610b66565b8060005b83811015610ca0578151610c878882610c2a565b9750610c9283610c42565b925050600181019050610c73565b5085935050505092915050565b60006020820190508181036000830152610cc78184610c4f565b905092915050565b600060208284031215610ce557610ce4610a6c565b5b6000610cf384828501610acb565b91505092915050565b600081519050919050565b600082825260208201905092915050565b6000819050602082019050919050565b60a082016000820151610d3e6000850182610b76565b506020820151610d516020850182610b85565b506040820151610d646040850182610bc6565b506060820151610d776060850182610b85565b506080820151610d8a6080850182610bc6565b50505050565b6000610d9c8383610d28565b60a08301905092915050565b6000602082019050919050565b6000610dc082610cfc565b610dca8185610d07565b9350610dd583610d18565b8060005b83811015610e06578151610ded8882610d90565b9750610df883610da8565b925050600181019050610dd9565b5085935050505092915050565b60006020820190508181036000830152610e2d8184610db5565b905092915050565b7f4e487b7100000000000000000000000000000000000000000000000000000000600052603260045260246000fd5b7f4e487b7100000000000000000000000000000000000000000000000000000000600052601160045260246000fd5b6000610e9e82610aaa565b9150610ea983610aaa565b9250828203905081811115610ec157610ec0610e64565b5b92915050565b7f4e487b7100000000000000000000000000000000000000000000000000000000600052603160045260246000fdfea264697066735822122044956374c08da798d62196c2f01d9092c9fc425f2c9ef2ef9067675f09ccf73a64736f6c634300081c0033",
  "linkReferences": {},
  "deployedLinkReferences": {}
}