{
  "_format": "hh-sol-artifact-1",
  "contractName": "Medicine",
  "sourceName": "contracts/medicine.sol",
  "abi": [
    {
      "inputs": [],
      "stateMutability": "nonpayable",
      "type": "constructor"
    },
    {
      "anonymous": false,
      "inputs": [
        {
          "indexed": true,
          "internalType": "uint256",
          "name": "medicineId",
          "type": "uint256"
        },
        {
          "indexed": false,
          "internalType": "string",
          "name": "name",
          "type": "string"
        },
        {
          "indexed": false,
          "internalType": "uint256",
          "name": "price",
          "type": "uint256"
        },
        {
          "indexed": false,
          "internalType": "uint256",
          "name": "quantity",
          "type": "uint256"
        }
      ],
      "name": "MedicineAdded",
      "type": "event"
    },
    {
      "anonymous": false,
      "inputs": [
        {
          "indexed": true,
          "internalType": "uint256",
          "name": "reservationId",
          "type": "uint256"
        },
        {
          "indexed": false,
          "internalType": "uint256",
          "name": "medicineId",
          "type": "uint256"
        },
        {
          "indexed": false,
          "internalType": "address",
          "name": "reserver",
          "type": "address"
        },
        {
          "indexed": false,
          "internalType": "uint256",
          "name": "quantity",
          "type": "uint256"
        }
      ],
      "name": "MedicineReserved",
      "type": "event"
    },
    {
      "anonymous": false,
      "inputs": [
        {
          "indexed": true,
          "internalType": "uint256",
          "name": "reservationId",
          "type": "uint256"
        },
        {
          "indexed": false,
          "internalType": "uint256",
          "name": "medicineId",
          "type": "uint256"
        },
        {
          "indexed": false,
          "internalType": "address",
          "name": "reserver",
          "type": "address"
        },
        {
          "indexed": false,
          "internalType": "address",
          "name": "seller",
          "type": "address"
        }
      ],
      "name": "ReservationFulfilled",
      "type": "event"
    },
    {
      "inputs": [
        {
          "internalType": "string",
          "name": "name",
          "type": "string"
        },
        {
          "internalType": "string",
          "name": "genericName",
          "type": "string"
        },
        {
          "internalType": "uint256",
          "name": "pricePerUnit",
          "type": "uint256"
        },
        {
          "internalType": "uint256",
          "name": "quantity",
          "type": "uint256"
        }
      ],
      "name": "addMedicine",
      "outputs": [],
      "stateMutability": "nonpayable",
      "type": "function"
    },
    {
      "inputs": [
        {
          "internalType": "uint256",
          "name": "reservationId",
          "type": "uint256"
        }
      ],
      "name": "fulfillReservation",
      "outputs": [],
      "stateMutability": "nonpayable",
      "type": "function"
    },
    {
      "inputs": [],
      "name": "getAllMedicines",
      "outputs": [
        {
          "components": [
            {
              "internalType": "string",
              "name": "name",
              "type": "string"
            },
            {
              "internalType": "string",
              "name": "genericName",
              "type": "string"
            },
            {
              "internalType": "uint256",
              "name": "pricePerUnit",
              "type": "uint256"
            },
            {
              "internalType": "uint256",
              "name": "quantity",
              "type": "uint256"
            },
            {
              "internalType": "address payable",
              "name": "seller",
              "type": "address"
            }
          ],
          "internalType": "struct Medicine.MedicineData[]",
          "name": "",
          "type": "tuple[]"
        }
      ],
      "stateMutability": "view",
      "type": "function"
    },
    {
      "inputs": [],
      "name": "getAllReservations",
      "outputs": [
        {
          "components": [
            {
              "internalType": "uint256",
              "name": "medicineId",
              "type": "uint256"
            },
            {
              "internalType": "uint256",
              "name": "quantity",
              "type": "uint256"
            },
            {
              "internalType": "address",
              "name": "reserver",
              "type": "address"
            },
            {
              "internalType": "uint256",
              "name": "totalAmount",
              "type": "uint256"
            },
            {
              "internalType": "bool",
              "name": "fulfilled",
              "type": "bool"
            }
          ],
          "internalType": "struct Medicine.Reservation[]",
          "name": "",
          "type": "tuple[]"
        }
      ],
      "stateMutability": "view",
      "type": "function"
    },
    {
      "inputs": [],
      "name": "getContractBalance",
      "outputs": [
        {
          "internalType": "uint256",
          "name": "",
          "type": "uint256"
        }
      ],
      "stateMutability": "view",
      "type": "function"
    },
    {
      "inputs": [],
      "name": "medicineCount",
      "outputs": [
        {
          "internalType": "uint256",
          "name": "",
          "type": "uint256"
        }
      ],
      "stateMutability": "view",
      "type": "function"
    },
    {
      "inputs": [
        {
          "internalType": "uint256",
          "name": "",
          "type": "uint256"
        }
      ],
      "name": "medicines",
      "outputs": [
        {
          "internalType": "string",
          "name": "name",
          "type": "string"
        },
        {
          "internalType": "string",
          "name": "genericName",
          "type": "string"
        },
        {
          "internalType": "uint256",
          "name": "pricePerUnit",
          "type": "uint256"
        },
        {
          "internalType": "uint256",
          "name": "quantity",
          "type": "uint256"
        },
        {
          "internalType": "address payable",
          "name": "seller",
          "type": "address"
        }
      ],
      "stateMutability": "view",
      "type": "function"
    },
    {
      "inputs": [],
      "name": "owner",
      "outputs": [
        {
          "internalType": "address payable",
          "name": "",
          "type": "address"
        }
      ],
      "stateMutability": "view",
      "type": "function"
    },
    {
      "inputs": [],
      "name": "reservationCount",
      "outputs": [
        {
          "internalType": "uint256",
          "name": "",
          "type": "uint256"
        }
      ],
      "stateMutability": "view",
      "type": "function"
    },
    {
      "inputs": [
        {
          "internalType": "uint256",
          "name": "",
          "type": "uint256"
        }
      ],
      "name": "reservations",
      "outputs": [
        {
          "internalType": "uint256",
          "name": "medicineId",
          "type": "uint256"
        },
        {
          "internalType": "uint256",
          "name": "quantity",
          "type": "uint256"
        },
        {
          "internalType": "address",
          "name": "reserver",
          "type": "address"
        },
        {
          "internalType": "uint256",
          "name": "totalAmount",
          "type": "uint256"
        },
        {
          "internalType": "bool",
          "name": "fulfilled",
          "type": "bool"
        }
      ],
      "stateMutability": "view",
      "type": "function"
    },
    {
      "inputs": [
        {
          "internalType": "uint256",
          "name": "medicineId",
          "type": "uint256"
        },
        {
          "internalType": "uint256",
          "name": "quantity",
          "type": "uint256"
        }
      ],
      "name": "reserveMedicine",
      "outputs": [],
      "stateMutability": "payable",
      "type": "function"
    }
  ],
  "bytecode": "0x6080604052348015600f57600080fd5b50336000806101000a81548173ffffffffffffffffffffffffffffffffffffffff021916908373ffffffffffffffffffffffffffffffffffffffff1602179055506123c38061005f6000396000f3fe60806040526004361061009c5760003560e01c806368f2b1d21161006457806368f2b1d21461017b5780636f9fb98a146101a65780638da5cb5b146101d1578063c85e766d146101fc578063e84f756e1461023d578063fbc62833146102685761009c565b8063067cf832146100a157806324425ce0146100e25780632ba25bdc1461010b578063373142da146101345780634dafd49014610150575b600080fd5b3480156100ad57600080fd5b506100c860048036038101906100c39190611284565b610293565b6040516100d995949392919061131c565b60405180910390f35b3480156100ee57600080fd5b5061010960048036038101906101049190611284565b6102f6565b005b34801561011757600080fd5b50610132600480360381019061012d91906114b5565b6104d7565b005b61014e60048036038101906101499190611554565b6107e4565b005b34801561015c57600080fd5b50610165610b1e565b6040516101729190611594565b60405180910390f35b34801561018757600080fd5b50610190610b24565b60405161019d919061179d565b60405180910390f35b3480156101b257600080fd5b506101bb610de5565b6040516101c89190611594565b60405180910390f35b3480156101dd57600080fd5b506101e6610ded565b6040516101f391906117ce565b60405180910390f35b34801561020857600080fd5b50610223600480360381019061021e9190611284565b610e11565b604051610234959493929190611833565b60405180910390f35b34801561024957600080fd5b50610252610f77565b60405161025f9190611594565b60405180910390f35b34801561027457600080fd5b5061027d610f7d565b60405161028a91906119c9565b60405180910390f35b60036020528060005260406000206000915090508060000154908060010154908060020160009054906101000a900473ffffffffffffffffffffffffffffffffffffffff16908060030154908060040160009054906101000a900460ff16905085565b600454811061033a576040517f08c379a000000000000000000000000000000000000000000000000000000000815260040161033190611a37565b60405180910390fd5b60006003600083815260200190815260200160002090508060040160009054906101000a900460ff16156103a3576040517f08c379a000000000000000000000000000000000000000000000000000000000815260040161039a90611aa3565b60405180910390fd5b6000600160008360000154815260200190815260200160002090508060040160009054906101000a900473ffffffffffffffffffffffffffffffffffffffff1673ffffffffffffffffffffffffffffffffffffffff166108fc83600301549081150290604051600060405180830381858888f1935050505015801561042c573d6000803e3d6000fd5b5060018260040160006101000a81548160ff021916908315150217905550827f0e3bc8d13c4864283bc8391d5e7fc353164ce6bc8c400b02871030e49bb8e5ea83600001548460020160009054906101000a900473ffffffffffffffffffffffffffffffffffffffff168460040160009054906101000a900473ffffffffffffffffffffffffffffffffffffffff166040516104ca93929190611b22565b60405180910390a2505050565b60008054906101000a900473ffffffffffffffffffffffffffffffffffffffff1673ffffffffffffffffffffffffffffffffffffffff163373ffffffffffffffffffffffffffffffffffffffff1614610565576040517f08c379a000000000000000000000000000000000000000000000000000000000815260040161055c90611ba5565b60405180910390fd5b600081116105a8576040517f08c379a000000000000000000000000000000000000000000000000000000000815260040161059f90611c37565b60405180910390fd5b600082116105eb576040517f08c379a00000000000000000000000000000000000000000000000000000000081526004016105e290611ca3565b60405180910390fd5b6000805b6002548110156106a4578560405160200161060a9190611cff565b60405160208183030381529060405280519060200120600160008381526020019081526020016000206000016040516020016106469190611e0e565b604051602081830303815290604052805190602001200361069757826001600083815260200190815260200160002060030160008282546106879190611e54565b92505081905550600191506106a4565b80806001019150506105ef565b50806107dd576040518060a001604052808681526020018581526020018481526020018381526020013373ffffffffffffffffffffffffffffffffffffffff1681525060016000600254815260200190815260200160002060008201518160000190816107119190612015565b5060208201518160010190816107279190612015565b50604082015181600201556060820151816003015560808201518160040160006101000a81548173ffffffffffffffffffffffffffffffffffffffff021916908373ffffffffffffffffffffffffffffffffffffffff1602179055509050506002547fefad3d115b4ae90874e0f9a8055898ef5a907e66523a156afdc2ba98a82cfc8a8685856040516107bc939291906120e7565b60405180910390a2600260008154809291906107d790612125565b91905055505b5050505050565b6002548210610828576040517f08c379a000000000000000000000000000000000000000000000000000000000815260040161081f906121b9565b60405180910390fd5b6000811161086b576040517f08c379a000000000000000000000000000000000000000000000000000000000815260040161086290611c37565b60405180910390fd5b80600160008481526020019081526020016000206003015410156108c4576040517f08c379a00000000000000000000000000000000000000000000000000000000081526004016108bb90612225565b60405180910390fd5b60008160016000858152602001908152602001600020600201546108e89190612245565b90508034101561092d576040517f08c379a0000000000000000000000000000000000000000000000000000000008152600401610924906122d3565b60405180910390fd5b8160016000858152602001908152602001600020600301600082825461095391906122f3565b9250508190555060006001600085815260200190815260200160002060030154036109e657600160008481526020019081526020016000206000808201600061099c9190611151565b6001820160006109ac9190611151565b600282016000905560038201600090556004820160006101000a81549073ffffffffffffffffffffffffffffffffffffffff021916905550505b6040518060a001604052808481526020018381526020013373ffffffffffffffffffffffffffffffffffffffff16815260200182815260200160001515815250600360006004548152602001908152602001600020600082015181600001556020820151816001015560408201518160020160006101000a81548173ffffffffffffffffffffffffffffffffffffffff021916908373ffffffffffffffffffffffffffffffffffffffff1602179055506060820151816003015560808201518160040160006101000a81548160ff0219169083151502179055509050506004547f07b4092658ed69392bfad7b0f4a03d5405012672f1a6f8f1e50f7d3d671effd7843385604051610af993929190612327565b60405180910390a260046000815480929190610b1490612125565b9190505550505050565b60025481565b60606000805b600254811015610b6f57600060016000838152602001908152602001600020600301541115610b62578180610b5e90612125565b9250505b8080600101915050610b2a565b5060008167ffffffffffffffff811115610b8c57610b8b61138a565b5b604051908082528060200260200182016040528015610bc557816020015b610bb2611191565b815260200190600190039081610baa5790505b5090506000805b600254811015610ddb57600060016000838152602001908152602001600020600301541115610dce57600160008281526020019081526020016000206040518060a0016040529081600082018054610c2390611d45565b80601f0160208091040260200160405190810160405280929190818152602001828054610c4f90611d45565b8015610c9c5780601f10610c7157610100808354040283529160200191610c9c565b820191906000526020600020905b815481529060010190602001808311610c7f57829003601f168201915b50505050508152602001600182018054610cb590611d45565b80601f0160208091040260200160405190810160405280929190818152602001828054610ce190611d45565b8015610d2e5780601f10610d0357610100808354040283529160200191610d2e565b820191906000526020600020905b815481529060010190602001808311610d1157829003601f168201915b5050505050815260200160028201548152602001600382015481526020016004820160009054906101000a900473ffffffffffffffffffffffffffffffffffffffff1673ffffffffffffffffffffffffffffffffffffffff1673ffffffffffffffffffffffffffffffffffffffff1681525050838381518110610db457610db361235e565b5b60200260200101819052508180610dca90612125565b9250505b8080600101915050610bcc565b5081935050505090565b600047905090565b60008054906101000a900473ffffffffffffffffffffffffffffffffffffffff1681565b6001602052806000526040600020600091509050806000018054610e3490611d45565b80601f0160208091040260200160405190810160405280929190818152602001828054610e6090611d45565b8015610ead5780601f10610e8257610100808354040283529160200191610ead565b820191906000526020600020905b815481529060010190602001808311610e9057829003601f168201915b505050505090806001018054610ec290611d45565b80601f0160208091040260200160405190810160405280929190818152602001828054610eee90611d45565b8015610f3b5780601f10610f1057610100808354040283529160200191610f3b565b820191906000526020600020905b815481529060010190602001808311610f1e57829003601f168201915b5050505050908060020154908060030154908060040160009054906101000a900473ffffffffffffffffffffffffffffffffffffffff16905085565b60045481565b60606000805b600454811015610fd1576003600082815260200190815260200160002060040160009054906101000a900460ff16610fc4578180610fc090612125565b9250505b8080600101915050610f83565b5060008167ffffffffffffffff811115610fee57610fed61138a565b5b60405190808252806020026020018201604052801561102757816020015b6110146111d6565b81526020019060019003908161100c5790505b5090506000805b600454811015611147576003600082815260200190815260200160002060040160009054906101000a900460ff1661113a57600360008281526020019081526020016000206040518060a001604052908160008201548152602001600182015481526020016002820160009054906101000a900473ffffffffffffffffffffffffffffffffffffffff1673ffffffffffffffffffffffffffffffffffffffff1673ffffffffffffffffffffffffffffffffffffffff168152602001600382015481526020016004820160009054906101000a900460ff1615151515815250508383815181106111205761111f61235e565b5b6020026020010181905250818061113690612125565b9250505b808060010191505061102e565b5081935050505090565b50805461115d90611d45565b6000825580601f1061116f575061118e565b601f01602090049060005260206000209081019061118d919061121d565b5b50565b6040518060a0016040528060608152602001606081526020016000815260200160008152602001600073ffffffffffffffffffffffffffffffffffffffff1681525090565b6040518060a001604052806000815260200160008152602001600073ffffffffffffffffffffffffffffffffffffffff168152602001600081526020016000151581525090565b5b8082111561123657600081600090555060010161121e565b5090565b6000604051905090565b600080fd5b600080fd5b6000819050919050565b6112618161124e565b811461126c57600080fd5b50565b60008135905061127e81611258565b92915050565b60006020828403121561129a57611299611244565b5b60006112a88482850161126f565b91505092915050565b6112ba8161124e565b82525050565b600073ffffffffffffffffffffffffffffffffffffffff82169050919050565b60006112eb826112c0565b9050919050565b6112fb816112e0565b82525050565b60008115159050919050565b61131681611301565b82525050565b600060a08201905061133160008301886112b1565b61133e60208301876112b1565b61134b60408301866112f2565b61135860608301856112b1565b611365608083018461130d565b9695505050505050565b600080fd5b600080fd5b6000601f19601f8301169050919050565b7f4e487b7100000000000000000000000000000000000000000000000000000000600052604160045260246000fd5b6113c282611379565b810181811067ffffffffffffffff821117156113e1576113e061138a565b5b80604052505050565b60006113f461123a565b905061140082826113b9565b919050565b600067ffffffffffffffff8211156114205761141f61138a565b5b61142982611379565b9050602081019050919050565b82818337600083830152505050565b600061145861145384611405565b6113ea565b90508281526020810184848401111561147457611473611374565b5b61147f848285611436565b509392505050565b600082601f83011261149c5761149b61136f565b5b81356114ac848260208601611445565b91505092915050565b600080600080608085870312156114cf576114ce611244565b5b600085013567ffffffffffffffff8111156114ed576114ec611249565b5b6114f987828801611487565b945050602085013567ffffffffffffffff81111561151a57611519611249565b5b61152687828801611487565b93505060406115378782880161126f565b92505060606115488782880161126f565b91505092959194509250565b6000806040838503121561156b5761156a611244565b5b60006115798582860161126f565b925050602061158a8582860161126f565b9150509250929050565b60006020820190506115a960008301846112b1565b92915050565b600081519050919050565b600082825260208201905092915050565b6000819050602082019050919050565b600081519050919050565b600082825260208201905092915050565b60005b838110156116155780820151818401526020810190506115fa565b60008484015250505050565b600061162c826115db565b61163681856115e6565b93506116468185602086016115f7565b61164f81611379565b840191505092915050565b6116638161124e565b82525050565b6000611674826112c0565b9050919050565b61168481611669565b82525050565b600060a08301600083015184820360008601526116a78282611621565b915050602083015184820360208601526116c18282611621565b91505060408301516116d6604086018261165a565b5060608301516116e9606086018261165a565b5060808301516116fc608086018261167b565b508091505092915050565b6000611713838361168a565b905092915050565b6000602082019050919050565b6000611733826115af565b61173d81856115ba565b93508360208202850161174f856115cb565b8060005b8581101561178b578484038952815161176c8582611707565b94506117778361171b565b925060208a01995050600181019050611753565b50829750879550505050505092915050565b600060208201905081810360008301526117b78184611728565b905092915050565b6117c881611669565b82525050565b60006020820190506117e360008301846117bf565b92915050565b600082825260208201905092915050565b6000611805826115db565b61180f81856117e9565b935061181f8185602086016115f7565b61182881611379565b840191505092915050565b600060a082019050818103600083015261184d81886117fa565b9050818103602083015261186181876117fa565b905061187060408301866112b1565b61187d60608301856112b1565b61188a60808301846117bf565b9695505050505050565b600081519050919050565b600082825260208201905092915050565b6000819050602082019050919050565b6118c9816112e0565b82525050565b6118d881611301565b82525050565b60a0820160008201516118f4600085018261165a565b506020820151611907602085018261165a565b50604082015161191a60408501826118c0565b50606082015161192d606085018261165a565b50608082015161194060808501826118cf565b50505050565b600061195283836118de565b60a08301905092915050565b6000602082019050919050565b600061197682611894565b611980818561189f565b935061198b836118b0565b8060005b838110156119bc5781516119a38882611946565b97506119ae8361195e565b92505060018101905061198f565b5085935050505092915050565b600060208201905081810360008301526119e3818461196b565b905092915050565b7f496e76616c6964207265736572766174696f6e20494400000000000000000000600082015250565b6000611a216016836117e9565b9150611a2c826119eb565b602082019050919050565b60006020820190508181036000830152611a5081611a14565b9050919050565b7f416c72656164792066756c66696c6c6564000000000000000000000000000000600082015250565b6000611a8d6011836117e9565b9150611a9882611a57565b602082019050919050565b60006020820190508181036000830152611abc81611a80565b9050919050565b6000819050919050565b6000611ae8611ae3611ade846112c0565b611ac3565b6112c0565b9050919050565b6000611afa82611acd565b9050919050565b6000611b0c82611aef565b9050919050565b611b1c81611b01565b82525050565b6000606082019050611b3760008301866112b1565b611b4460208301856112f2565b611b516040830184611b13565b949350505050565b7f4e6f7420746865206f776e657200000000000000000000000000000000000000600082015250565b6000611b8f600d836117e9565b9150611b9a82611b59565b602082019050919050565b60006020820190508181036000830152611bbe81611b82565b9050919050565b7f5175616e74697479206d7573742062652067726561746572207468616e207a6560008201527f726f000000000000000000000000000000000000000000000000000000000000602082015250565b6000611c216022836117e9565b9150611c2c82611bc5565b604082019050919050565b60006020820190508181036000830152611c5081611c14565b9050919050565b7f5072696365206d7573742062652067726561746572207468616e207a65726f00600082015250565b6000611c8d601f836117e9565b9150611c9882611c57565b602082019050919050565b60006020820190508181036000830152611cbc81611c80565b9050919050565b600081905092915050565b6000611cd9826115db565b611ce38185611cc3565b9350611cf38185602086016115f7565b80840191505092915050565b6000611d0b8284611cce565b915081905092915050565b7f4e487b7100000000000000000000000000000000000000000000000000000000600052602260045260246000fd5b60006002820490506001821680611d5d57607f821691505b602082108103611d7057611d6f611d16565b5b50919050565b60008190508160005260206000209050919050565b60008154611d9881611d45565b611da28186611cc3565b94506001821660008114611dbd5760018114611dd257611e05565b60ff1983168652811515820286019350611e05565b611ddb85611d76565b60005b83811015611dfd57815481890152600182019150602081019050611dde565b838801955050505b50505092915050565b6000611e1a8284611d8b565b915081905092915050565b7f4e487b7100000000000000000000000000000000000000000000000000000000600052601160045260246000fd5b6000611e5f8261124e565b9150611e6a8361124e565b9250828201905080821115611e8257611e81611e25565b5b92915050565b60006020601f8301049050919050565b600082821b905092915050565b600060088302611ed57fffffffffffffffffffffffffffffffffffffffffffffffffffffffffffffffff82611e98565b611edf8683611e98565b95508019841693508086168417925050509392505050565b6000611f12611f0d611f088461124e565b611ac3565b61124e565b9050919050565b6000819050919050565b611f2c83611ef7565b611f40611f3882611f19565b848454611ea5565b825550505050565b600090565b611f55611f48565b611f60818484611f23565b505050565b5b81811015611f8457611f79600082611f4d565b600181019050611f66565b5050565b601f821115611fc957611f9a81611d76565b611fa384611e88565b81016020851015611fb2578190505b611fc6611fbe85611e88565b830182611f65565b50505b505050565b600082821c905092915050565b6000611fec60001984600802611fce565b1980831691505092915050565b60006120058383611fdb565b9150826002028217905092915050565b61201e826115db565b67ffffffffffffffff8111156120375761203661138a565b5b6120418254611d45565b61204c828285611f88565b600060209050601f83116001811461207f576000841561206d578287015190505b6120778582611ff9565b8655506120df565b601f19841661208d86611d76565b60005b828110156120b557848901518255600182019150602085019450602081019050612090565b868310156120d257848901516120ce601f891682611fdb565b8355505b6001600288020188555050505b505050505050565b6000606082019050818103600083015261210181866117fa565b905061211060208301856112b1565b61211d60408301846112b1565b949350505050565b60006121308261124e565b91507fffffffffffffffffffffffffffffffffffffffffffffffffffffffffffffffff820361216257612161611e25565b5b600182019050919050565b7f496e76616c6964206d65646963696e6520494400000000000000000000000000600082015250565b60006121a36013836117e9565b91506121ae8261216d565b602082019050919050565b600060208201905081810360008301526121d281612196565b9050919050565b7f4e6f7420656e6f7567682073746f636b20617661696c61626c65000000000000600082015250565b600061220f601a836117e9565b915061221a826121d9565b602082019050919050565b6000602082019050818103600083015261223e81612202565b9050919050565b60006122508261124e565b915061225b8361124e565b92508282026122698161124e565b915082820484148315176122805761227f611e25565b5b5092915050565b7f496e73756666696369656e74207061796d656e74000000000000000000000000600082015250565b60006122bd6014836117e9565b91506122c882612287565b602082019050919050565b600060208201905081810360008301526122ec816122b0565b9050919050565b60006122fe8261124e565b91506123098361124e565b925082820390508181111561232157612320611e25565b5b92915050565b600060608201905061233c60008301866112b1565b61234960208301856112f2565b61235660408301846112b1565b949350505050565b7f4e487b7100000000000000000000000000000000000000000000000000000000600052603260045260246000fdfea26469706673582212206c26c77bc3269549568e0713c4122d60561edda07422a7bb069f89b29b1fec7064736f6c634300081c0033",
  "linkReferences": {},
  "deployedLinkReferences": {}
}