{
  "_format": "hh-sol-artifact-1",
  "contractName": "Registered",
  "sourceName": "contracts/registered.sol",
  "abi": [
    {
      "inputs": [],
      "stateMutability": "nonpayable",
      "type": "constructor"
    },
    {
      "inputs": [],
      "name": "getAllRegisteredUsers",
      "outputs": [
        {
          "internalType": "address[]",
          "name": "",
          "type": "address[]"
        },
        {
          "internalType": "string[]",
          "name": "",
          "type": "string[]"
        }
      ],
      "stateMutability": "view",
      "type": "function"
    },
    {
      "inputs": [
        {
          "internalType": "address",
          "name": "user",
          "type": "address"
        }
      ],
      "name": "getName",
      "outputs": [
        {
          "internalType": "string",
          "name": "",
          "type": "string"
        }
      ],
      "stateMutability": "view",
      "type": "function"
    },
    {
      "inputs": [],
      "name": "owner",
      "outputs": [
        {
          "internalType": "address payable",
          "name": "",
          "type": "address"
        }
      ],
      "stateMutability": "view",
      "type": "function"
    },
    {
      "inputs": [
        {
          "internalType": "address",
          "name": "",
          "type": "address"
        }
      ],
      "name": "register",
      "outputs": [
        {
          "internalType": "string",
          "name": "",
          "type": "string"
        }
      ],
      "stateMutability": "view",
      "type": "function"
    },
    {
      "inputs": [
        {
          "internalType": "uint256",
          "name": "",
          "type": "uint256"
        }
      ],
      "name": "registeredUsers",
      "outputs": [
        {
          "internalType": "address",
          "name": "",
          "type": "address"
        }
      ],
      "stateMutability": "view",
      "type": "function"
    },
    {
      "inputs": [
        {
          "internalType": "string",
          "name": "name",
          "type": "string"
        }
      ],
      "name": "setName",
      "outputs": [],
      "stateMutability": "nonpayable",
      "type": "function"
    }
  ],
  "bytecode": "0x6080604052348015600f57600080fd5b50336000806101000a81548173ffffffffffffffffffffffffffffffffffffffff021916908373ffffffffffffffffffffffffffffffffffffffff16021790555061123a8061005f6000396000f3fe608060405234801561001057600080fd5b50600436106100625760003560e01c8063397388af146100675780634420e486146100865780635fd4b08a146100b65780637259e0f8146100e65780638da5cb5b14610116578063c47f002714610134575b600080fd5b61006f610150565b60405161007d929190610a09565b60405180910390f35b6100a0600480360381019061009b9190610a80565b61040f565b6040516100ad9190610af7565b60405180910390f35b6100d060048036038101906100cb9190610a80565b6104af565b6040516100dd9190610af7565b60405180910390f35b61010060048036038101906100fb9190610b4f565b610580565b60405161010d9190610b8b565b60405180910390f35b61011e6105bf565b60405161012b9190610bc7565b60405180910390f35b61014e60048036038101906101499190610d17565b6105e3565b005b60608060008054906101000a900473ffffffffffffffffffffffffffffffffffffffff1673ffffffffffffffffffffffffffffffffffffffff163373ffffffffffffffffffffffffffffffffffffffff16146101e1576040517f08c379a00000000000000000000000000000000000000000000000000000000081526004016101d890610dac565b60405180910390fd5b6000600380549050905060008167ffffffffffffffff81111561020757610206610bec565b5b60405190808252806020026020018201604052801561023a57816020015b60608152602001906001900390816102255790505b50905060005b828110156103795760016000600383815481106102605761025f610dcc565b5b9060005260206000200160009054906101000a900473ffffffffffffffffffffffffffffffffffffffff1673ffffffffffffffffffffffffffffffffffffffff1673ffffffffffffffffffffffffffffffffffffffff16815260200190815260200160002080546102d090610e2a565b80601f01602080910402602001604051908101604052809291908181526020018280546102fc90610e2a565b80156103495780601f1061031e57610100808354040283529160200191610349565b820191906000526020600020905b81548152906001019060200180831161032c57829003601f168201915b505050505082828151811061036157610360610dcc565b5b60200260200101819052508080600101915050610240565b50600381818054806020026020016040519081016040528092919081815260200182805480156103fe57602002820191906000526020600020905b8160009054906101000a900473ffffffffffffffffffffffffffffffffffffffff1673ffffffffffffffffffffffffffffffffffffffff16815260200190600101908083116103b4575b505050505091509350935050509091565b6001602052806000526040600020600091509050805461042e90610e2a565b80601f016020809104026020016040519081016040528092919081815260200182805461045a90610e2a565b80156104a75780601f1061047c576101008083540402835291602001916104a7565b820191906000526020600020905b81548152906001019060200180831161048a57829003601f168201915b505050505081565b6060600160008373ffffffffffffffffffffffffffffffffffffffff1673ffffffffffffffffffffffffffffffffffffffff16815260200190815260200160002080546104fb90610e2a565b80601f016020809104026020016040519081016040528092919081815260200182805461052790610e2a565b80156105745780601f1061054957610100808354040283529160200191610574565b820191906000526020600020905b81548152906001019060200180831161055757829003601f168201915b50505050509050919050565b6003818154811061059057600080fd5b906000526020600020016000915054906101000a900473ffffffffffffffffffffffffffffffffffffffff1681565b60008054906101000a900473ffffffffffffffffffffffffffffffffffffffff1681565b6000600160003373ffffffffffffffffffffffffffffffffffffffff1673ffffffffffffffffffffffffffffffffffffffff168152602001908152602001600020805461062f90610e2a565b905014610671576040517f08c379a000000000000000000000000000000000000000000000000000000000815260040161066890610ea7565b60405180910390fd5b6002816040516106819190610f03565b908152602001604051809103902060009054906101000a900460ff16156106dd576040517f08c379a00000000000000000000000000000000000000000000000000000000081526004016106d490610f66565b60405180910390fd5b80600160003373ffffffffffffffffffffffffffffffffffffffff1673ffffffffffffffffffffffffffffffffffffffff16815260200190815260200160002090816107299190611132565b50600160028260405161073c9190610f03565b908152602001604051809103902060006101000a81548160ff0219169083151502179055506003339080600181540180825580915050600190039060005260206000200160009091909190916101000a81548173ffffffffffffffffffffffffffffffffffffffff021916908373ffffffffffffffffffffffffffffffffffffffff16021790555050565b600081519050919050565b600082825260208201905092915050565b6000819050602082019050919050565b600073ffffffffffffffffffffffffffffffffffffffff82169050919050565b600061081e826107f3565b9050919050565b61082e81610813565b82525050565b60006108408383610825565b60208301905092915050565b6000602082019050919050565b6000610864826107c7565b61086e81856107d2565b9350610879836107e3565b8060005b838110156108aa5781516108918882610834565b975061089c8361084c565b92505060018101905061087d565b5085935050505092915050565b600081519050919050565b600082825260208201905092915050565b6000819050602082019050919050565b600081519050919050565b600082825260208201905092915050565b60005b8381101561091d578082015181840152602081019050610902565b60008484015250505050565b6000601f19601f8301169050919050565b6000610945826108e3565b61094f81856108ee565b935061095f8185602086016108ff565b61096881610929565b840191505092915050565b600061097f838361093a565b905092915050565b6000602082019050919050565b600061099f826108b7565b6109a981856108c2565b9350836020820285016109bb856108d3565b8060005b858110156109f757848403895281516109d88582610973565b94506109e383610987565b925060208a019950506001810190506109bf565b50829750879550505050505092915050565b60006040820190508181036000830152610a238185610859565b90508181036020830152610a378184610994565b90509392505050565b6000604051905090565b600080fd5b600080fd5b610a5d81610813565b8114610a6857600080fd5b50565b600081359050610a7a81610a54565b92915050565b600060208284031215610a9657610a95610a4a565b5b6000610aa484828501610a6b565b91505092915050565b600082825260208201905092915050565b6000610ac9826108e3565b610ad38185610aad565b9350610ae38185602086016108ff565b610aec81610929565b840191505092915050565b60006020820190508181036000830152610b118184610abe565b905092915050565b6000819050919050565b610b2c81610b19565b8114610b3757600080fd5b50565b600081359050610b4981610b23565b92915050565b600060208284031215610b6557610b64610a4a565b5b6000610b7384828501610b3a565b91505092915050565b610b8581610813565b82525050565b6000602082019050610ba06000830184610b7c565b92915050565b6000610bb1826107f3565b9050919050565b610bc181610ba6565b82525050565b6000602082019050610bdc6000830184610bb8565b92915050565b600080fd5b600080fd5b7f4e487b7100000000000000000000000000000000000000000000000000000000600052604160045260246000fd5b610c2482610929565b810181811067ffffffffffffffff82111715610c4357610c42610bec565b5b80604052505050565b6000610c56610a40565b9050610c628282610c1b565b919050565b600067ffffffffffffffff821115610c8257610c81610bec565b5b610c8b82610929565b9050602081019050919050565b82818337600083830152505050565b6000610cba610cb584610c67565b610c4c565b905082815260208101848484011115610cd657610cd5610be7565b5b610ce1848285610c98565b509392505050565b600082601f830112610cfe57610cfd610be2565b5b8135610d0e848260208601610ca7565b91505092915050565b600060208284031215610d2d57610d2c610a4a565b5b600082013567ffffffffffffffff811115610d4b57610d4a610a4f565b5b610d5784828501610ce9565b91505092915050565b7f4e6f7420746865206f776e657200000000000000000000000000000000000000600082015250565b6000610d96600d83610aad565b9150610da182610d60565b602082019050919050565b60006020820190508181036000830152610dc581610d89565b9050919050565b7f4e487b7100000000000000000000000000000000000000000000000000000000600052603260045260246000fd5b7f4e487b7100000000000000000000000000000000000000000000000000000000600052602260045260246000fd5b60006002820490506001821680610e4257607f821691505b602082108103610e5557610e54610dfb565b5b50919050565b7f4164647265737320616c72656164792072656769737465726564000000000000600082015250565b6000610e91601a83610aad565b9150610e9c82610e5b565b602082019050919050565b60006020820190508181036000830152610ec081610e84565b9050919050565b600081905092915050565b6000610edd826108e3565b610ee78185610ec7565b9350610ef78185602086016108ff565b80840191505092915050565b6000610f0f8284610ed2565b915081905092915050565b7f4e616d6520616c72656164792074616b656e0000000000000000000000000000600082015250565b6000610f50601283610aad565b9150610f5b82610f1a565b602082019050919050565b60006020820190508181036000830152610f7f81610f43565b9050919050565b60008190508160005260206000209050919050565b60006020601f8301049050919050565b600082821b905092915050565b600060088302610fe87fffffffffffffffffffffffffffffffffffffffffffffffffffffffffffffffff82610fab565b610ff28683610fab565b95508019841693508086168417925050509392505050565b6000819050919050565b600061102f61102a61102584610b19565b61100a565b610b19565b9050919050565b6000819050919050565b61104983611014565b61105d61105582611036565b848454610fb8565b825550505050565b600090565b611072611065565b61107d818484611040565b505050565b5b818110156110a15761109660008261106a565b600181019050611083565b5050565b601f8211156110e6576110b781610f86565b6110c084610f9b565b810160208510156110cf578190505b6110e36110db85610f9b565b830182611082565b50505b505050565b600082821c905092915050565b6000611109600019846008026110eb565b1980831691505092915050565b600061112283836110f8565b9150826002028217905092915050565b61113b826108e3565b67ffffffffffffffff81111561115457611153610bec565b5b61115e8254610e2a565b6111698282856110a5565b600060209050601f83116001811461119c576000841561118a578287015190505b6111948582611116565b8655506111fc565b601f1984166111aa86610f86565b60005b828110156111d2578489015182556001820191506020850194506020810190506111ad565b868310156111ef57848901516111eb601f8916826110f8565b8355505b6001600288020188555050505b50505050505056fea26469706673582212205c6424dbae945062f8159e6a3fa1fa27406b1c25cc2f8babc1259c7e011c7c5a64736f6c634300081c0033",
  "linkReferences": {},
  "deployedLinkReferences": {}
}